{
  "_format": "hh-sol-artifact-1",
  "contractName": "Election",
  "sourceName": "contracts/votingSC.sol",
  "abi": [
    {
      "inputs": [],
      "stateMutability": "nonpayable",
      "type": "constructor"
    },
    {
      "inputs": [],
      "name": "admin",
      "outputs": [
        {
          "internalType": "address",
          "name": "",
          "type": "address"
        }
      ],
      "stateMutability": "view",
      "type": "function"
    },
    {
      "inputs": [
        {
          "internalType": "uint256",
          "name": "",
          "type": "uint256"
        }
      ],
      "name": "candidates",
      "outputs": [
        {
          "internalType": "string",
          "name": "name",
          "type": "string"
        },
        {
          "internalType": "uint256",
          "name": "voteCount",
          "type": "uint256"
        }
      ],
      "stateMutability": "view",
      "type": "function"
    },
    {
      "inputs": [
        {
          "internalType": "uint256",
          "name": "candidateIndex",
          "type": "uint256"
        }
      ],
      "name": "castVote",
      "outputs": [],
      "stateMutability": "nonpayable",
      "type": "function"
    },
    {
      "inputs": [
        {
          "internalType": "string[]",
          "name": "candidateNames",
          "type": "string[]"
        },
        {
          "internalType": "uint256",
          "name": "votingStartTime",
          "type": "uint256"
        },
        {
          "internalType": "uint256",
          "name": "votingEndTime",
          "type": "uint256"
        },
        {
          "internalType": "uint256",
          "name": "minVotes",
          "type": "uint256"
        }
      ],
      "name": "contestants",
      "outputs": [],
      "stateMutability": "nonpayable",
      "type": "function"
    },
    {
      "inputs": [],
      "name": "contestantsAdded",
      "outputs": [
        {
          "internalType": "bool",
          "name": "",
          "type": "bool"
        }
      ],
      "stateMutability": "view",
      "type": "function"
    },
    {
      "inputs": [],
      "name": "endVoting",
      "outputs": [],
      "stateMutability": "nonpayable",
      "type": "function"
    },
    {
      "inputs": [],
      "name": "getAdmin",
      "outputs": [
        {
          "internalType": "address",
          "name": "",
          "type": "address"
        }
      ],
      "stateMutability": "view",
      "type": "function"
    },
    {
      "inputs": [
        {
          "internalType": "uint256",
          "name": "candidateIndex",
          "type": "uint256"
        }
      ],
      "name": "getCandidate",
      "outputs": [
        {
          "internalType": "string",
          "name": "",
          "type": "string"
        },
        {
          "internalType": "uint256",
          "name": "",
          "type": "uint256"
        }
      ],
      "stateMutability": "view",
      "type": "function"
    },
    {
      "inputs": [],
      "name": "getCandidatesLength",
      "outputs": [
        {
          "internalType": "uint256",
          "name": "",
          "type": "uint256"
        }
      ],
      "stateMutability": "view",
      "type": "function"
    },
    {
      "inputs": [],
      "name": "getRegisteredVoters",
      "outputs": [
        {
          "internalType": "address[]",
          "name": "",
          "type": "address[]"
        }
      ],
      "stateMutability": "view",
      "type": "function"
    },
    {
      "inputs": [],
      "name": "getTotalVotes",
      "outputs": [
        {
          "internalType": "uint256",
          "name": "",
          "type": "uint256"
        }
      ],
      "stateMutability": "view",
      "type": "function"
    },
    {
      "inputs": [
        {
          "internalType": "address",
          "name": "voter",
          "type": "address"
        }
      ],
      "name": "getVotedFor",
      "outputs": [
        {
          "internalType": "uint256",
          "name": "",
          "type": "uint256"
        }
      ],
      "stateMutability": "view",
      "type": "function"
    },
    {
      "inputs": [
        {
          "internalType": "address",
          "name": "voter",
          "type": "address"
        }
      ],
      "name": "getVoterHasVoted",
      "outputs": [
        {
          "internalType": "bool",
          "name": "",
          "type": "bool"
        }
      ],
      "stateMutability": "view",
      "type": "function"
    },
    {
      "inputs": [],
      "name": "getVotingEnd",
      "outputs": [
        {
          "internalType": "uint256",
          "name": "",
          "type": "uint256"
        }
      ],
      "stateMutability": "view",
      "type": "function"
    },
    {
      "inputs": [],
      "name": "getVotingStart",
      "outputs": [
        {
          "internalType": "uint256",
          "name": "",
          "type": "uint256"
        }
      ],
      "stateMutability": "view",
      "type": "function"
    },
    {
      "inputs": [],
      "name": "getWinner",
      "outputs": [
        {
          "internalType": "string",
          "name": "",
          "type": "string"
        }
      ],
      "stateMutability": "view",
      "type": "function"
    },
    {
      "inputs": [],
      "name": "isVotingOpen",
      "outputs": [
        {
          "internalType": "bool",
          "name": "",
          "type": "bool"
        }
      ],
      "stateMutability": "view",
      "type": "function"
    },
    {
      "inputs": [],
      "name": "listingPrice",
      "outputs": [
        {
          "internalType": "uint256",
          "name": "",
          "type": "uint256"
        }
      ],
      "stateMutability": "view",
      "type": "function"
    },
    {
      "inputs": [],
      "name": "minimumVotes",
      "outputs": [
        {
          "internalType": "uint256",
          "name": "",
          "type": "uint256"
        }
      ],
      "stateMutability": "view",
      "type": "function"
    },
    {
      "inputs": [],
      "name": "newElection",
      "outputs": [],
      "stateMutability": "nonpayable",
      "type": "function"
    },
    {
      "inputs": [],
      "name": "registerVoter",
      "outputs": [],
      "stateMutability": "nonpayable",
      "type": "function"
    },
    {
      "inputs": [],
      "name": "resetMapping",
      "outputs": [],
      "stateMutability": "nonpayable",
      "type": "function"
    },
    {
      "inputs": [],
      "name": "timestamp",
      "outputs": [
        {
          "internalType": "uint256",
          "name": "",
          "type": "uint256"
        }
      ],
      "stateMutability": "view",
      "type": "function"
    },
    {
      "inputs": [],
      "name": "totalVotes",
      "outputs": [
        {
          "internalType": "uint256",
          "name": "",
          "type": "uint256"
        }
      ],
      "stateMutability": "view",
      "type": "function"
    },
    {
      "inputs": [
        {
          "internalType": "address",
          "name": "_address",
          "type": "address"
        }
      ],
      "name": "transferOwnership",
      "outputs": [],
      "stateMutability": "nonpayable",
      "type": "function"
    },
    {
      "inputs": [
        {
          "internalType": "address",
          "name": "",
          "type": "address"
        }
      ],
      "name": "voters",
      "outputs": [
        {
          "internalType": "bool",
          "name": "isRegistered",
          "type": "bool"
        },
        {
          "internalType": "bool",
          "name": "hasVoted",
          "type": "bool"
        },
        {
          "internalType": "uint256",
          "name": "votedFor",
          "type": "uint256"
        }
      ],
      "stateMutability": "view",
      "type": "function"
    },
    {
      "inputs": [],
      "name": "votingEnd",
      "outputs": [
        {
          "internalType": "uint256",
          "name": "",
          "type": "uint256"
        }
      ],
      "stateMutability": "view",
      "type": "function"
    },
    {
      "inputs": [],
      "name": "votingStart",
      "outputs": [
        {
          "internalType": "uint256",
          "name": "",
          "type": "uint256"
        }
      ],
      "stateMutability": "view",
      "type": "function"
    }
  ],
  "bytecode": "0x6080604052650246139ca80060005534801561001a57600080fd5b5033600160006101000a81548173ffffffffffffffffffffffffffffffffffffffff021916908373ffffffffffffffffffffffffffffffffffffffff16021790555061239c8061006b6000396000f3fe608060405234801561001057600080fd5b50600436106101c45760003560e01c80639a0e7d66116100f9578063cba025a711610097578063f2fde38b11610071578063f2fde38b146104b7578063f68a3b10146104d3578063f851a440146104dd578063fa7f1bae146104fb576101c4565b8063cba025a714610473578063da9d5c921461047d578063ecb617d9146104ad576101c4565b8063b80777ea116100d3578063b80777ea14610411578063c3403ddf1461042f578063c78f19f914610439578063caaea3e414610457576101c4565b80639a0e7d66146103a3578063a3ec138d146103c1578063ae9f2ac2146103f3576101c4565b80634b11e7a01161016657806368797beb1161014057806368797beb146103195780636e9960c31461034957806385a38635146103675780638e7ea5b214610385576101c4565b80634b11e7a0146102bf5780634d3f12b5146102dd5780636407e0d4146102fb576101c4565b80632bc4a6e7116101a25780632bc4a6e7146102235780633477ee2e1461024157806335b8e820146102725780633eb76b9c146102a3576101c4565b80630d15fd77146101c9578063101158af146101e75780631859df6514610205575b600080fd5b6101d1610519565b6040516101de9190611657565b60405180910390f35b6101ef61051f565b6040516101fc9190611657565b60405180910390f35b61020d610525565b60405161021a9190611657565b60405180910390f35b61022b610532565b6040516102389190611762565b60405180910390f35b61025b600480360381019061025691906117c4565b6105c0565b60405161026992919061188a565b60405180910390f35b61028c600480360381019061028791906117c4565b61067c565b60405161029a92919061188a565b60405180910390f35b6102bd60048036038101906102b891906117c4565b6107a7565b005b6102c7610a54565b6040516102d49190611657565b60405180910390f35b6102e5610a5e565b6040516102f291906118d5565b60405180910390f35b610303610a71565b6040516103109190611657565b60405180910390f35b610333600480360381019061032e919061191c565b610a77565b60405161034091906118d5565b60405180910390f35b610351610ad0565b60405161035e9190611958565b60405180910390f35b61036f610afa565b60405161037c9190611657565b60405180910390f35b61038d610b00565b60405161039a9190611973565b60405180910390f35b6103ab610c37565b6040516103b89190611657565b60405180910390f35b6103db60048036038101906103d6919061191c565b610c41565b6040516103ea93929190611995565b60405180910390f35b6103fb610c85565b6040516104089190611657565b60405180910390f35b610419610c8f565b6040516104269190611657565b60405180910390f35b610437610c95565b005b610441610dd0565b60405161044e9190611657565b60405180910390f35b610471600480360381019061046c9190611be7565b610dd6565b005b61047b611031565b005b6104976004803603810190610492919061191c565b611116565b6040516104a49190611657565b60405180910390f35b6104b5611162565b005b6104d160048036038101906104cc919061191c565b611301565b005b6104db6113d5565b005b6104e56114ae565b6040516104f29190611958565b60405180910390f35b6105036114d4565b60405161051091906118d5565b60405180910390f35b60085481565b60045481565b6000600380549050905090565b606060098054806020026020016040519081016040528092919081815260200182805480156105b657602002820191906000526020600020905b8160009054906101000a900473ffffffffffffffffffffffffffffffffffffffff1673ffffffffffffffffffffffffffffffffffffffff168152602001906001019080831161056c575b5050505050905090565b600381815481106105d057600080fd5b90600052602060002090600202016000915090508060000180546105f390611c99565b80601f016020809104026020016040519081016040528092919081815260200182805461061f90611c99565b801561066c5780601f106106415761010080835404028352916020019161066c565b820191906000526020600020905b81548152906001019060200180831161064f57829003601f168201915b5050505050908060010154905082565b6060600060038054905083106106c7576040517f08c379a00000000000000000000000000000000000000000000000000000000081526004016106be90611d17565b60405180910390fd5b600383815481106106db576106da611d37565b5b906000526020600020906002020160000160038481548110610700576106ff611d37565b5b90600052602060002090600202016001015481805461071e90611c99565b80601f016020809104026020016040519081016040528092919081815260200182805461074a90611c99565b80156107975780601f1061076c57610100808354040283529160200191610797565b820191906000526020600020905b81548152906001019060200180831161077a57829003601f168201915b5050505050915091509150915091565b600760009054906101000a900460ff166107f6576040517f08c379a00000000000000000000000000000000000000000000000000000000081526004016107ed90611db2565b60405180910390fd5b600260003373ffffffffffffffffffffffffffffffffffffffff1673ffffffffffffffffffffffffffffffffffffffff16815260200190815260200160002060000160009054906101000a900460ff16610885576040517f08c379a000000000000000000000000000000000000000000000000000000000815260040161087c90611e1e565b60405180910390fd5b600260003373ffffffffffffffffffffffffffffffffffffffff1673ffffffffffffffffffffffffffffffffffffffff16815260200190815260200160002060000160019054906101000a900460ff1615610915576040517f08c379a000000000000000000000000000000000000000000000000000000000815260040161090c90611e8a565b60405180910390fd5b600380549050811061095c576040517f08c379a000000000000000000000000000000000000000000000000000000000815260040161095390611d17565b60405180910390fd5b6001600260003373ffffffffffffffffffffffffffffffffffffffff1673ffffffffffffffffffffffffffffffffffffffff16815260200190815260200160002060000160016101000a81548160ff02191690831515021790555080600260003373ffffffffffffffffffffffffffffffffffffffff1673ffffffffffffffffffffffffffffffffffffffff1681526020019081526020016000206001018190555060038181548110610a1257610a11611d37565b5b90600052602060002090600202016001016000815480929190610a3490611ed9565b919050555060086000815480929190610a4c90611ed9565b919050555050565b6000600454905090565b600760019054906101000a900460ff1681565b60065481565b6000600260008373ffffffffffffffffffffffffffffffffffffffff1673ffffffffffffffffffffffffffffffffffffffff16815260200190815260200160002060000160019054906101000a900460ff169050919050565b6000600160009054906101000a900473ffffffffffffffffffffffffffffffffffffffff16905090565b60055481565b606060008060005b600380549050811015610b81578260038281548110610b2a57610b29611d37565b5b9060005260206000209060020201600101541115610b6e5760038181548110610b5657610b55611d37565b5b90600052602060002090600202016001015492508091505b8080610b7990611ed9565b915050610b08565b5060038181548110610b9657610b95611d37565b5b90600052602060002090600202016000018054610bb290611c99565b80601f0160208091040260200160405190810160405280929190818152602001828054610bde90611c99565b8015610c2b5780601f10610c0057610100808354040283529160200191610c2b565b820191906000526020600020905b815481529060010190602001808311610c0e57829003601f168201915b50505050509250505090565b6000600854905090565b60026020528060005260406000206000915090508060000160009054906101000a900460ff16908060000160019054906101000a900460ff16908060010154905083565b6000600554905090565b600a5481565b600160009054906101000a900473ffffffffffffffffffffffffffffffffffffffff1673ffffffffffffffffffffffffffffffffffffffff163373ffffffffffffffffffffffffffffffffffffffff1614610d25576040517f08c379a0000000000000000000000000000000000000000000000000000000008152600401610d1c90611f94565b60405180910390fd5b600554600a541015610d6c576040517f08c379a0000000000000000000000000000000000000000000000000000000008152600401610d6390612000565b60405180910390fd5b6006546008541015610db3576040517f08c379a0000000000000000000000000000000000000000000000000000000008152600401610daa9061206c565b60405180910390fd5b6000600760006101000a81548160ff021916908315150217905550565b60005481565b600160009054906101000a900473ffffffffffffffffffffffffffffffffffffffff1673ffffffffffffffffffffffffffffffffffffffff163373ffffffffffffffffffffffffffffffffffffffff1614610e66576040517f08c379a0000000000000000000000000000000000000000000000000000000008152600401610e5d90611f94565b60405180910390fd5b600760019054906101000a900460ff1615610eb6576040517f08c379a0000000000000000000000000000000000000000000000000000000008152600401610ead90612124565b60405180910390fd5b6000845111610efa576040517f08c379a0000000000000000000000000000000000000000000000000000000008152600401610ef1906121b6565b60405180910390fd5b818310610f3c576040517f08c379a0000000000000000000000000000000000000000000000000000000008152600401610f3390612248565b60405180910390fd5b60005b8451811015610fdf5760036040518060400160405280878481518110610f6857610f67611d37565b5b60200260200101518152602001600081525090806001815401808255809150506001900390600052602060002090600202016000909190919091506000820151816000019080519060200190610fbf9291906114e7565b506020820151816001015550508080610fd790611ed9565b915050610f3f565b508260048190555081600581905550806006819055506001600760006101000a81548160ff0219169083151502179055506001600760016101000a81548160ff02191690831515021790555050505050565b600060098054905011156111145760005b60098054905081101561111257600260006009838154811061106757611066611d37565b5b9060005260206000200160009054906101000a900473ffffffffffffffffffffffffffffffffffffffff1673ffffffffffffffffffffffffffffffffffffffff1673ffffffffffffffffffffffffffffffffffffffff168152602001908152602001600020600080820160006101000a81549060ff02191690556000820160016101000a81549060ff021916905560018201600090555050808061110a90611ed9565b915050611042565b505b565b6000600260008373ffffffffffffffffffffffffffffffffffffffff1673ffffffffffffffffffffffffffffffffffffffff168152602001908152602001600020600101549050919050565b600760009054906101000a900460ff166111b1576040517f08c379a00000000000000000000000000000000000000000000000000000000081526004016111a890611db2565b60405180910390fd5b600260003373ffffffffffffffffffffffffffffffffffffffff1673ffffffffffffffffffffffffffffffffffffffff16815260200190815260200160002060000160009054906101000a900460ff1615611241576040517f08c379a0000000000000000000000000000000000000000000000000000000008152600401611238906122b4565b60405180910390fd5b6001600260003373ffffffffffffffffffffffffffffffffffffffff1673ffffffffffffffffffffffffffffffffffffffff16815260200190815260200160002060000160006101000a81548160ff0219169083151502179055506009339080600181540180825580915050600190039060005260206000200160009091909190916101000a81548173ffffffffffffffffffffffffffffffffffffffff021916908373ffffffffffffffffffffffffffffffffffffffff160217905550565b600160009054906101000a900473ffffffffffffffffffffffffffffffffffffffff1673ffffffffffffffffffffffffffffffffffffffff163373ffffffffffffffffffffffffffffffffffffffff1614611391576040517f08c379a000000000000000000000000000000000000000000000000000000000815260040161138890612346565b60405180910390fd5b80600160006101000a81548173ffffffffffffffffffffffffffffffffffffffff021916908373ffffffffffffffffffffffffffffffffffffffff16021790555050565b600160009054906101000a900473ffffffffffffffffffffffffffffffffffffffff1673ffffffffffffffffffffffffffffffffffffffff163373ffffffffffffffffffffffffffffffffffffffff1614611465576040517f08c379a000000000000000000000000000000000000000000000000000000000815260040161145c90611f94565b60405180910390fd5b60036000611473919061156d565b6000600881905550611483611031565b600960006114919190611591565b6000600760016101000a81548160ff021916908315150217905550565b600160009054906101000a900473ffffffffffffffffffffffffffffffffffffffff1681565b600760009054906101000a900460ff1681565b8280546114f390611c99565b90600052602060002090601f016020900481019282611515576000855561155c565b82601f1061152e57805160ff191683800117855561155c565b8280016001018555821561155c579182015b8281111561155b578251825591602001919060010190611540565b5b50905061156991906115b2565b5090565b508054600082556002029060005260206000209081019061158e91906115cf565b50565b50805460008255906000526020600020908101906115af91906115b2565b50565b5b808211156115cb5760008160009055506001016115b3565b5090565b5b808211156115fa57600080820160006115e991906115fe565b6001820160009055506002016115d0565b5090565b50805461160a90611c99565b6000825580601f1061161c575061163b565b601f01602090049060005260206000209081019061163a91906115b2565b5b50565b6000819050919050565b6116518161163e565b82525050565b600060208201905061166c6000830184611648565b92915050565b600081519050919050565b600082825260208201905092915050565b6000819050602082019050919050565b600073ffffffffffffffffffffffffffffffffffffffff82169050919050565b60006116c98261169e565b9050919050565b6116d9816116be565b82525050565b60006116eb83836116d0565b60208301905092915050565b6000602082019050919050565b600061170f82611672565b611719818561167d565b93506117248361168e565b8060005b8381101561175557815161173c88826116df565b9750611747836116f7565b925050600181019050611728565b5085935050505092915050565b6000602082019050818103600083015261177c8184611704565b905092915050565b6000604051905090565b600080fd5b600080fd5b6117a18161163e565b81146117ac57600080fd5b50565b6000813590506117be81611798565b92915050565b6000602082840312156117da576117d961178e565b5b60006117e8848285016117af565b91505092915050565b600081519050919050565b600082825260208201905092915050565b60005b8381101561182b578082015181840152602081019050611810565b8381111561183a576000848401525b50505050565b6000601f19601f8301169050919050565b600061185c826117f1565b61186681856117fc565b935061187681856020860161180d565b61187f81611840565b840191505092915050565b600060408201905081810360008301526118a48185611851565b90506118b36020830184611648565b9392505050565b60008115159050919050565b6118cf816118ba565b82525050565b60006020820190506118ea60008301846118c6565b92915050565b6118f9816116be565b811461190457600080fd5b50565b600081359050611916816118f0565b92915050565b6000602082840312156119325761193161178e565b5b600061194084828501611907565b91505092915050565b611952816116be565b82525050565b600060208201905061196d6000830184611949565b92915050565b6000602082019050818103600083015261198d8184611851565b905092915050565b60006060820190506119aa60008301866118c6565b6119b760208301856118c6565b6119c46040830184611648565b949350505050565b600080fd5b7f4e487b7100000000000000000000000000000000000000000000000000000000600052604160045260246000fd5b611a0982611840565b810181811067ffffffffffffffff82111715611a2857611a276119d1565b5b80604052505050565b6000611a3b611784565b9050611a478282611a00565b919050565b600067ffffffffffffffff821115611a6757611a666119d1565b5b602082029050602081019050919050565b600080fd5b600080fd5b600067ffffffffffffffff821115611a9d57611a9c6119d1565b5b611aa682611840565b9050602081019050919050565b82818337600083830152505050565b6000611ad5611ad084611a82565b611a31565b905082815260208101848484011115611af157611af0611a7d565b5b611afc848285611ab3565b509392505050565b600082601f830112611b1957611b186119cc565b5b8135611b29848260208601611ac2565b91505092915050565b6000611b45611b4084611a4c565b611a31565b90508083825260208201905060208402830185811115611b6857611b67611a78565b5b835b81811015611baf57803567ffffffffffffffff811115611b8d57611b8c6119cc565b5b808601611b9a8982611b04565b85526020850194505050602081019050611b6a565b5050509392505050565b600082601f830112611bce57611bcd6119cc565b5b8135611bde848260208601611b32565b91505092915050565b60008060008060808587031215611c0157611c0061178e565b5b600085013567ffffffffffffffff811115611c1f57611c1e611793565b5b611c2b87828801611bb9565b9450506020611c3c878288016117af565b9350506040611c4d878288016117af565b9250506060611c5e878288016117af565b91505092959194509250565b7f4e487b7100000000000000000000000000000000000000000000000000000000600052602260045260246000fd5b60006002820490506001821680611cb157607f821691505b60208210811415611cc557611cc4611c6a565b5b50919050565b7f496e76616c69642063616e64696461746520696e646578000000000000000000600082015250565b6000611d016017836117fc565b9150611d0c82611ccb565b602082019050919050565b60006020820190508181036000830152611d3081611cf4565b9050919050565b7f4e487b7100000000000000000000000000000000000000000000000000000000600052603260045260246000fd5b7f566f74696e6720697320636c6f73656400000000000000000000000000000000600082015250565b6000611d9c6010836117fc565b9150611da782611d66565b602082019050919050565b60006020820190508181036000830152611dcb81611d8f565b9050919050565b7f566f746572206973206e6f742072656769737465726564000000000000000000600082015250565b6000611e086017836117fc565b9150611e1382611dd2565b602082019050919050565b60006020820190508181036000830152611e3781611dfb565b9050919050565b7f566f7465722068617320616c726561647920766f746564000000000000000000600082015250565b6000611e746017836117fc565b9150611e7f82611e3e565b602082019050919050565b60006020820190508181036000830152611ea381611e67565b9050919050565b7f4e487b7100000000000000000000000000000000000000000000000000000000600052601160045260246000fd5b6000611ee48261163e565b91507fffffffffffffffffffffffffffffffffffffffffffffffffffffffffffffffff821415611f1757611f16611eaa565b5b600182019050919050565b7f536f727279204f6e6c792041646d696e6973747261746f722063616e2070657260008201527f666f726d2074686973206f7065726174696f6e00000000000000000000000000602082015250565b6000611f7e6033836117fc565b9150611f8982611f22565b604082019050919050565b60006020820190508181036000830152611fad81611f71565b9050919050565b7f566f74696e6720686173206e6f7420656e646564207965740000000000000000600082015250565b6000611fea6018836117fc565b9150611ff582611fb4565b602082019050919050565b6000602082019050818103600083015261201981611fdd565b9050919050565b7f4e6f7420656e6f75676820766f74657300000000000000000000000000000000600082015250565b60006120566010836117fc565b915061206182612020565b602082019050919050565b6000602082019050818103600083015261208581612049565b9050919050565b7f636f6e74657374616e74732068617320616c7265616479206265656e2061646460008201527f656420616e642061646d696e206861736e2774206465636c61726564206e657760208201527f20656c656374696f6e0000000000000000000000000000000000000000000000604082015250565b600061210e6049836117fc565b91506121198261208c565b606082019050919050565b6000602082019050818103600083015261213d81612101565b9050919050565b7f5468657265206d757374206265206174206c65617374206f6e652063616e646960008201527f6461746500000000000000000000000000000000000000000000000000000000602082015250565b60006121a06024836117fc565b91506121ab82612144565b604082019050919050565b600060208201905081810360008301526121cf81612193565b9050919050565b7f566f74696e6720656e642074696d65206d75737420626520616674657220766f60008201527f74696e672073746172742074696d650000000000000000000000000000000000602082015250565b6000612232602f836117fc565b915061223d826121d6565b604082019050919050565b6000602082019050818103600083015261226181612225565b9050919050565b7f566f7465722068617320616c7265616479207265676973746572656400000000600082015250565b600061229e601c836117fc565b91506122a982612268565b602082019050919050565b600060208201905081810360008301526122cd81612291565b9050919050565b7f4f6e6c7920746865206f776e6572206861732074686520726967687420746f2060008201527f7472616e73666572206f776e6572736869702e00000000000000000000000000602082015250565b60006123306033836117fc565b915061233b826122d4565b604082019050919050565b6000602082019050818103600083015261235f81612323565b905091905056fea2646970667358221220b84a580f65296723057bd9a4fc91c9b368fcdcb27c0a944769a28efd60f66dcd64736f6c63430008090033",
  "linkReferences": {},
  "deployedLinkReferences": {}
}