{
  "_format": "hh-sol-artifact-1",
  "contractName": "Election",
  "sourceName": "contracts/votingSC.sol",
  "abi": [
    {
      "inputs": [],
      "stateMutability": "nonpayable",
      "type": "constructor"
    },
    {
      "inputs": [],
      "name": "admin",
      "outputs": [
        {
          "internalType": "address",
          "name": "",
          "type": "address"
        }
      ],
      "stateMutability": "view",
      "type": "function"
    },
    {
      "inputs": [
        {
          "internalType": "uint256",
          "name": "",
          "type": "uint256"
        }
      ],
      "name": "candidates",
      "outputs": [
        {
          "internalType": "string",
          "name": "name",
          "type": "string"
        },
        {
          "internalType": "uint256",
          "name": "voteCount",
          "type": "uint256"
        }
      ],
      "stateMutability": "view",
      "type": "function"
    },
    {
      "inputs": [
        {
          "internalType": "uint256",
          "name": "candidateIndex",
          "type": "uint256"
        }
      ],
      "name": "castVote",
      "outputs": [],
      "stateMutability": "nonpayable",
      "type": "function"
    },
    {
      "inputs": [
        {
          "internalType": "string[]",
          "name": "candidateNames",
          "type": "string[]"
        },
        {
          "internalType": "uint256",
          "name": "votingStartTime",
          "type": "uint256"
        },
        {
          "internalType": "uint256",
          "name": "votingEndTime",
          "type": "uint256"
        },
        {
          "internalType": "uint256",
          "name": "minVotes",
          "type": "uint256"
        }
      ],
      "name": "contestants",
      "outputs": [],
      "stateMutability": "nonpayable",
      "type": "function"
    },
    {
      "inputs": [],
      "name": "contestantsAdded",
      "outputs": [
        {
          "internalType": "bool",
          "name": "",
          "type": "bool"
        }
      ],
      "stateMutability": "view",
      "type": "function"
    },
    {
      "inputs": [],
      "name": "endVoting",
      "outputs": [],
      "stateMutability": "nonpayable",
      "type": "function"
    },
    {
      "inputs": [
        {
          "internalType": "uint256",
          "name": "candidateIndex",
          "type": "uint256"
        }
      ],
      "name": "getCandidate",
      "outputs": [
        {
          "internalType": "string",
          "name": "",
          "type": "string"
        },
        {
          "internalType": "uint256",
          "name": "",
          "type": "uint256"
        }
      ],
      "stateMutability": "view",
      "type": "function"
    },
    {
      "inputs": [],
      "name": "getCandidatesLength",
      "outputs": [
        {
          "internalType": "uint256",
          "name": "",
          "type": "uint256"
        }
      ],
      "stateMutability": "view",
      "type": "function"
    },
    {
      "inputs": [],
      "name": "getRegisteredVoters",
      "outputs": [
        {
          "internalType": "address[]",
          "name": "",
          "type": "address[]"
        }
      ],
      "stateMutability": "view",
      "type": "function"
    },
    {
      "inputs": [],
      "name": "getTotalVotes",
      "outputs": [
        {
          "internalType": "uint256",
          "name": "",
          "type": "uint256"
        }
      ],
      "stateMutability": "view",
      "type": "function"
    },
    {
      "inputs": [
        {
          "internalType": "address",
          "name": "voter",
          "type": "address"
        }
      ],
      "name": "getVotedFor",
      "outputs": [
        {
          "internalType": "uint256",
          "name": "",
          "type": "uint256"
        }
      ],
      "stateMutability": "view",
      "type": "function"
    },
    {
      "inputs": [
        {
          "internalType": "address",
          "name": "voter",
          "type": "address"
        }
      ],
      "name": "getVoterHasVoted",
      "outputs": [
        {
          "internalType": "bool",
          "name": "",
          "type": "bool"
        }
      ],
      "stateMutability": "view",
      "type": "function"
    },
    {
      "inputs": [],
      "name": "getVotingEnd",
      "outputs": [
        {
          "internalType": "uint256",
          "name": "",
          "type": "uint256"
        }
      ],
      "stateMutability": "view",
      "type": "function"
    },
    {
      "inputs": [],
      "name": "getVotingStart",
      "outputs": [
        {
          "internalType": "uint256",
          "name": "",
          "type": "uint256"
        }
      ],
      "stateMutability": "view",
      "type": "function"
    },
    {
      "inputs": [],
      "name": "getWinner",
      "outputs": [
        {
          "internalType": "string",
          "name": "",
          "type": "string"
        }
      ],
      "stateMutability": "view",
      "type": "function"
    },
    {
      "inputs": [],
      "name": "isVotingOpen",
      "outputs": [
        {
          "internalType": "bool",
          "name": "",
          "type": "bool"
        }
      ],
      "stateMutability": "view",
      "type": "function"
    },
    {
      "inputs": [],
      "name": "listingPrice",
      "outputs": [
        {
          "internalType": "uint256",
          "name": "",
          "type": "uint256"
        }
      ],
      "stateMutability": "view",
      "type": "function"
    },
    {
      "inputs": [],
      "name": "minimumVotes",
      "outputs": [
        {
          "internalType": "uint256",
          "name": "",
          "type": "uint256"
        }
      ],
      "stateMutability": "view",
      "type": "function"
    },
    {
      "inputs": [],
      "name": "newElection",
      "outputs": [],
      "stateMutability": "nonpayable",
      "type": "function"
    },
    {
      "inputs": [],
      "name": "registerVoter",
      "outputs": [],
      "stateMutability": "nonpayable",
      "type": "function"
    },
    {
      "inputs": [],
      "name": "resetMapping",
      "outputs": [],
      "stateMutability": "nonpayable",
      "type": "function"
    },
    {
      "inputs": [],
      "name": "timestamp",
      "outputs": [
        {
          "internalType": "uint256",
          "name": "",
          "type": "uint256"
        }
      ],
      "stateMutability": "view",
      "type": "function"
    },
    {
      "inputs": [],
      "name": "totalVotes",
      "outputs": [
        {
          "internalType": "uint256",
          "name": "",
          "type": "uint256"
        }
      ],
      "stateMutability": "view",
      "type": "function"
    },
    {
      "inputs": [
        {
          "internalType": "address",
          "name": "",
          "type": "address"
        }
      ],
      "name": "voters",
      "outputs": [
        {
          "internalType": "bool",
          "name": "isRegistered",
          "type": "bool"
        },
        {
          "internalType": "bool",
          "name": "hasVoted",
          "type": "bool"
        },
        {
          "internalType": "uint256",
          "name": "votedFor",
          "type": "uint256"
        }
      ],
      "stateMutability": "view",
      "type": "function"
    },
    {
      "inputs": [],
      "name": "votingEnd",
      "outputs": [
        {
          "internalType": "uint256",
          "name": "",
          "type": "uint256"
        }
      ],
      "stateMutability": "view",
      "type": "function"
    },
    {
      "inputs": [],
      "name": "votingStart",
      "outputs": [
        {
          "internalType": "uint256",
          "name": "",
          "type": "uint256"
        }
      ],
      "stateMutability": "view",
      "type": "function"
    }
  ],
  "bytecode": "0x6080604052650246139ca80060005534801561001a57600080fd5b5033600160006101000a81548173ffffffffffffffffffffffffffffffffffffffff021916908373ffffffffffffffffffffffffffffffffffffffff16021790555061210c8061006b6000396000f3fe608060405234801561001057600080fd5b506004361061018e5760003560e01c80639a0e7d66116100de578063caaea3e411610097578063ecb617d911610071578063ecb617d914610459578063f68a3b1014610463578063f851a4401461046d578063fa7f1bae1461048b5761018e565b8063caaea3e414610403578063cba025a71461041f578063da9d5c92146104295761018e565b80639a0e7d661461034f578063a3ec138d1461036d578063ae9f2ac21461039f578063b80777ea146103bd578063c3403ddf146103db578063c78f19f9146103e55761018e565b80633eb76b9c1161014b5780636407e0d4116101255780636407e0d4146102c557806368797beb146102e357806385a38635146103135780638e7ea5b2146103315761018e565b80633eb76b9c1461026d5780634b11e7a0146102895780634d3f12b5146102a75761018e565b80630d15fd7714610193578063101158af146101b15780631859df65146101cf5780632bc4a6e7146101ed5780633477ee2e1461020b57806335b8e8201461023c575b600080fd5b61019b6104a9565b6040516101a89190611459565b60405180910390f35b6101b96104af565b6040516101c69190611459565b60405180910390f35b6101d76104b5565b6040516101e49190611459565b60405180910390f35b6101f56104c2565b6040516102029190611564565b60405180910390f35b610225600480360381019061022091906115c6565b610550565b60405161023392919061168c565b60405180910390f35b610256600480360381019061025191906115c6565b61060c565b60405161026492919061168c565b60405180910390f35b610287600480360381019061028291906115c6565b610737565b005b6102916109e4565b60405161029e9190611459565b60405180910390f35b6102af6109ee565b6040516102bc91906116d7565b60405180910390f35b6102cd610a01565b6040516102da9190611459565b60405180910390f35b6102fd60048036038101906102f8919061171e565b610a07565b60405161030a91906116d7565b60405180910390f35b61031b610a60565b6040516103289190611459565b60405180910390f35b610339610a66565b604051610346919061174b565b60405180910390f35b610357610b9d565b6040516103649190611459565b60405180910390f35b6103876004803603810190610382919061171e565b610ba7565b6040516103969392919061176d565b60405180910390f35b6103a7610beb565b6040516103b49190611459565b60405180910390f35b6103c5610bf5565b6040516103d29190611459565b60405180910390f35b6103e3610bfb565b005b6103ed610d36565b6040516103fa9190611459565b60405180910390f35b61041d600480360381019061041891906119bf565b610d3c565b005b610427610f97565b005b610443600480360381019061043e919061171e565b61107c565b6040516104509190611459565b60405180910390f35b6104616110c8565b005b61046b611267565b005b6104756112b0565b6040516104829190611a51565b60405180910390f35b6104936112d6565b6040516104a091906116d7565b60405180910390f35b60085481565b60045481565b6000600380549050905090565b6060600980548060200260200160405190810160405280929190818152602001828054801561054657602002820191906000526020600020905b8160009054906101000a900473ffffffffffffffffffffffffffffffffffffffff1673ffffffffffffffffffffffffffffffffffffffff16815260200190600101908083116104fc575b5050505050905090565b6003818154811061056057600080fd5b906000526020600020906002020160009150905080600001805461058390611a9b565b80601f01602080910402602001604051908101604052809291908181526020018280546105af90611a9b565b80156105fc5780601f106105d1576101008083540402835291602001916105fc565b820191906000526020600020905b8154815290600101906020018083116105df57829003601f168201915b5050505050908060010154905082565b606060006003805490508310610657576040517f08c379a000000000000000000000000000000000000000000000000000000000815260040161064e90611b19565b60405180910390fd5b6003838154811061066b5761066a611b39565b5b9060005260206000209060020201600001600384815481106106905761068f611b39565b5b9060005260206000209060020201600101548180546106ae90611a9b565b80601f01602080910402602001604051908101604052809291908181526020018280546106da90611a9b565b80156107275780601f106106fc57610100808354040283529160200191610727565b820191906000526020600020905b81548152906001019060200180831161070a57829003601f168201915b5050505050915091509150915091565b600760009054906101000a900460ff16610786576040517f08c379a000000000000000000000000000000000000000000000000000000000815260040161077d90611bb4565b60405180910390fd5b600260003373ffffffffffffffffffffffffffffffffffffffff1673ffffffffffffffffffffffffffffffffffffffff16815260200190815260200160002060000160009054906101000a900460ff16610815576040517f08c379a000000000000000000000000000000000000000000000000000000000815260040161080c90611c20565b60405180910390fd5b600260003373ffffffffffffffffffffffffffffffffffffffff1673ffffffffffffffffffffffffffffffffffffffff16815260200190815260200160002060000160019054906101000a900460ff16156108a5576040517f08c379a000000000000000000000000000000000000000000000000000000000815260040161089c90611c8c565b60405180910390fd5b60038054905081106108ec576040517f08c379a00000000000000000000000000000000000000000000000000000000081526004016108e390611b19565b60405180910390fd5b6001600260003373ffffffffffffffffffffffffffffffffffffffff1673ffffffffffffffffffffffffffffffffffffffff16815260200190815260200160002060000160016101000a81548160ff02191690831515021790555080600260003373ffffffffffffffffffffffffffffffffffffffff1673ffffffffffffffffffffffffffffffffffffffff16815260200190815260200160002060010181905550600381815481106109a2576109a1611b39565b5b906000526020600020906002020160010160008154809291906109c490611cdb565b9190505550600860008154809291906109dc90611cdb565b919050555050565b6000600454905090565b600760019054906101000a900460ff1681565b60065481565b6000600260008373ffffffffffffffffffffffffffffffffffffffff1673ffffffffffffffffffffffffffffffffffffffff16815260200190815260200160002060000160019054906101000a900460ff169050919050565b60055481565b606060008060005b600380549050811015610ae7578260038281548110610a9057610a8f611b39565b5b9060005260206000209060020201600101541115610ad45760038181548110610abc57610abb611b39565b5b90600052602060002090600202016001015492508091505b8080610adf90611cdb565b915050610a6e565b5060038181548110610afc57610afb611b39565b5b90600052602060002090600202016000018054610b1890611a9b565b80601f0160208091040260200160405190810160405280929190818152602001828054610b4490611a9b565b8015610b915780601f10610b6657610100808354040283529160200191610b91565b820191906000526020600020905b815481529060010190602001808311610b7457829003601f168201915b50505050509250505090565b6000600854905090565b60026020528060005260406000206000915090508060000160009054906101000a900460ff16908060000160019054906101000a900460ff16908060010154905083565b6000600554905090565b600a5481565b600160009054906101000a900473ffffffffffffffffffffffffffffffffffffffff1673ffffffffffffffffffffffffffffffffffffffff163373ffffffffffffffffffffffffffffffffffffffff1614610c8b576040517f08c379a0000000000000000000000000000000000000000000000000000000008152600401610c8290611d96565b60405180910390fd5b600554600a541015610cd2576040517f08c379a0000000000000000000000000000000000000000000000000000000008152600401610cc990611e02565b60405180910390fd5b6006546008541015610d19576040517f08c379a0000000000000000000000000000000000000000000000000000000008152600401610d1090611e6e565b60405180910390fd5b6000600760006101000a81548160ff021916908315150217905550565b60005481565b600160009054906101000a900473ffffffffffffffffffffffffffffffffffffffff1673ffffffffffffffffffffffffffffffffffffffff163373ffffffffffffffffffffffffffffffffffffffff1614610dcc576040517f08c379a0000000000000000000000000000000000000000000000000000000008152600401610dc390611d96565b60405180910390fd5b600760019054906101000a900460ff1615610e1c576040517f08c379a0000000000000000000000000000000000000000000000000000000008152600401610e1390611f26565b60405180910390fd5b6000845111610e60576040517f08c379a0000000000000000000000000000000000000000000000000000000008152600401610e5790611fb8565b60405180910390fd5b818310610ea2576040517f08c379a0000000000000000000000000000000000000000000000000000000008152600401610e999061204a565b60405180910390fd5b60005b8451811015610f455760036040518060400160405280878481518110610ece57610ecd611b39565b5b60200260200101518152602001600081525090806001815401808255809150506001900390600052602060002090600202016000909190919091506000820151816000019080519060200190610f259291906112e9565b506020820151816001015550508080610f3d90611cdb565b915050610ea5565b508260048190555081600581905550806006819055506001600760006101000a81548160ff0219169083151502179055506001600760016101000a81548160ff02191690831515021790555050505050565b6000600980549050111561107a5760005b600980549050811015611078576002600060098381548110610fcd57610fcc611b39565b5b9060005260206000200160009054906101000a900473ffffffffffffffffffffffffffffffffffffffff1673ffffffffffffffffffffffffffffffffffffffff1673ffffffffffffffffffffffffffffffffffffffff168152602001908152602001600020600080820160006101000a81549060ff02191690556000820160016101000a81549060ff021916905560018201600090555050808061107090611cdb565b915050610fa8565b505b565b6000600260008373ffffffffffffffffffffffffffffffffffffffff1673ffffffffffffffffffffffffffffffffffffffff168152602001908152602001600020600101549050919050565b600760009054906101000a900460ff16611117576040517f08c379a000000000000000000000000000000000000000000000000000000000815260040161110e90611bb4565b60405180910390fd5b600260003373ffffffffffffffffffffffffffffffffffffffff1673ffffffffffffffffffffffffffffffffffffffff16815260200190815260200160002060000160009054906101000a900460ff16156111a7576040517f08c379a000000000000000000000000000000000000000000000000000000000815260040161119e906120b6565b60405180910390fd5b6001600260003373ffffffffffffffffffffffffffffffffffffffff1673ffffffffffffffffffffffffffffffffffffffff16815260200190815260200160002060000160006101000a81548160ff0219169083151502179055506009339080600181540180825580915050600190039060005260206000200160009091909190916101000a81548173ffffffffffffffffffffffffffffffffffffffff021916908373ffffffffffffffffffffffffffffffffffffffff160217905550565b60036000611275919061136f565b6000600881905550611285610f97565b600960006112939190611393565b6000600760016101000a81548160ff021916908315150217905550565b600160009054906101000a900473ffffffffffffffffffffffffffffffffffffffff1681565b600760009054906101000a900460ff1681565b8280546112f590611a9b565b90600052602060002090601f016020900481019282611317576000855561135e565b82601f1061133057805160ff191683800117855561135e565b8280016001018555821561135e579182015b8281111561135d578251825591602001919060010190611342565b5b50905061136b91906113b4565b5090565b508054600082556002029060005260206000209081019061139091906113d1565b50565b50805460008255906000526020600020908101906113b191906113b4565b50565b5b808211156113cd5760008160009055506001016113b5565b5090565b5b808211156113fc57600080820160006113eb9190611400565b6001820160009055506002016113d2565b5090565b50805461140c90611a9b565b6000825580601f1061141e575061143d565b601f01602090049060005260206000209081019061143c91906113b4565b5b50565b6000819050919050565b61145381611440565b82525050565b600060208201905061146e600083018461144a565b92915050565b600081519050919050565b600082825260208201905092915050565b6000819050602082019050919050565b600073ffffffffffffffffffffffffffffffffffffffff82169050919050565b60006114cb826114a0565b9050919050565b6114db816114c0565b82525050565b60006114ed83836114d2565b60208301905092915050565b6000602082019050919050565b600061151182611474565b61151b818561147f565b935061152683611490565b8060005b8381101561155757815161153e88826114e1565b9750611549836114f9565b92505060018101905061152a565b5085935050505092915050565b6000602082019050818103600083015261157e8184611506565b905092915050565b6000604051905090565b600080fd5b600080fd5b6115a381611440565b81146115ae57600080fd5b50565b6000813590506115c08161159a565b92915050565b6000602082840312156115dc576115db611590565b5b60006115ea848285016115b1565b91505092915050565b600081519050919050565b600082825260208201905092915050565b60005b8381101561162d578082015181840152602081019050611612565b8381111561163c576000848401525b50505050565b6000601f19601f8301169050919050565b600061165e826115f3565b61166881856115fe565b935061167881856020860161160f565b61168181611642565b840191505092915050565b600060408201905081810360008301526116a68185611653565b90506116b5602083018461144a565b9392505050565b60008115159050919050565b6116d1816116bc565b82525050565b60006020820190506116ec60008301846116c8565b92915050565b6116fb816114c0565b811461170657600080fd5b50565b600081359050611718816116f2565b92915050565b60006020828403121561173457611733611590565b5b600061174284828501611709565b91505092915050565b600060208201905081810360008301526117658184611653565b905092915050565b600060608201905061178260008301866116c8565b61178f60208301856116c8565b61179c604083018461144a565b949350505050565b600080fd5b7f4e487b7100000000000000000000000000000000000000000000000000000000600052604160045260246000fd5b6117e182611642565b810181811067ffffffffffffffff82111715611800576117ff6117a9565b5b80604052505050565b6000611813611586565b905061181f82826117d8565b919050565b600067ffffffffffffffff82111561183f5761183e6117a9565b5b602082029050602081019050919050565b600080fd5b600080fd5b600067ffffffffffffffff821115611875576118746117a9565b5b61187e82611642565b9050602081019050919050565b82818337600083830152505050565b60006118ad6118a88461185a565b611809565b9050828152602081018484840111156118c9576118c8611855565b5b6118d484828561188b565b509392505050565b600082601f8301126118f1576118f06117a4565b5b813561190184826020860161189a565b91505092915050565b600061191d61191884611824565b611809565b905080838252602082019050602084028301858111156119405761193f611850565b5b835b8181101561198757803567ffffffffffffffff811115611965576119646117a4565b5b80860161197289826118dc565b85526020850194505050602081019050611942565b5050509392505050565b600082601f8301126119a6576119a56117a4565b5b81356119b684826020860161190a565b91505092915050565b600080600080608085870312156119d9576119d8611590565b5b600085013567ffffffffffffffff8111156119f7576119f6611595565b5b611a0387828801611991565b9450506020611a14878288016115b1565b9350506040611a25878288016115b1565b9250506060611a36878288016115b1565b91505092959194509250565b611a4b816114c0565b82525050565b6000602082019050611a666000830184611a42565b92915050565b7f4e487b7100000000000000000000000000000000000000000000000000000000600052602260045260246000fd5b60006002820490506001821680611ab357607f821691505b60208210811415611ac757611ac6611a6c565b5b50919050565b7f496e76616c69642063616e64696461746520696e646578000000000000000000600082015250565b6000611b036017836115fe565b9150611b0e82611acd565b602082019050919050565b60006020820190508181036000830152611b3281611af6565b9050919050565b7f4e487b7100000000000000000000000000000000000000000000000000000000600052603260045260246000fd5b7f566f74696e6720697320636c6f73656400000000000000000000000000000000600082015250565b6000611b9e6010836115fe565b9150611ba982611b68565b602082019050919050565b60006020820190508181036000830152611bcd81611b91565b9050919050565b7f566f746572206973206e6f742072656769737465726564000000000000000000600082015250565b6000611c0a6017836115fe565b9150611c1582611bd4565b602082019050919050565b60006020820190508181036000830152611c3981611bfd565b9050919050565b7f566f7465722068617320616c726561647920766f746564000000000000000000600082015250565b6000611c766017836115fe565b9150611c8182611c40565b602082019050919050565b60006020820190508181036000830152611ca581611c69565b9050919050565b7f4e487b7100000000000000000000000000000000000000000000000000000000600052601160045260246000fd5b6000611ce682611440565b91507fffffffffffffffffffffffffffffffffffffffffffffffffffffffffffffffff821415611d1957611d18611cac565b5b600182019050919050565b7f536f727279204f6e6c792041646d696e6973747261746f722063616e2070657260008201527f666f726d2074686973206f7065726174696f6e00000000000000000000000000602082015250565b6000611d806033836115fe565b9150611d8b82611d24565b604082019050919050565b60006020820190508181036000830152611daf81611d73565b9050919050565b7f566f74696e6720686173206e6f7420656e646564207965740000000000000000600082015250565b6000611dec6018836115fe565b9150611df782611db6565b602082019050919050565b60006020820190508181036000830152611e1b81611ddf565b9050919050565b7f4e6f7420656e6f75676820766f74657300000000000000000000000000000000600082015250565b6000611e586010836115fe565b9150611e6382611e22565b602082019050919050565b60006020820190508181036000830152611e8781611e4b565b9050919050565b7f636f6e74657374616e74732068617320616c7265616479206265656e2061646460008201527f656420616e642061646d696e206861736e2774206465636c61726564206e657760208201527f20656c656374696f6e0000000000000000000000000000000000000000000000604082015250565b6000611f106049836115fe565b9150611f1b82611e8e565b606082019050919050565b60006020820190508181036000830152611f3f81611f03565b9050919050565b7f5468657265206d757374206265206174206c65617374206f6e652063616e646960008201527f6461746500000000000000000000000000000000000000000000000000000000602082015250565b6000611fa26024836115fe565b9150611fad82611f46565b604082019050919050565b60006020820190508181036000830152611fd181611f95565b9050919050565b7f566f74696e6720656e642074696d65206d75737420626520616674657220766f60008201527f74696e672073746172742074696d650000000000000000000000000000000000602082015250565b6000612034602f836115fe565b915061203f82611fd8565b604082019050919050565b6000602082019050818103600083015261206381612027565b9050919050565b7f566f7465722068617320616c7265616479207265676973746572656400000000600082015250565b60006120a0601c836115fe565b91506120ab8261206a565b602082019050919050565b600060208201905081810360008301526120cf81612093565b905091905056fea264697066735822122035c5e5ffb1d8b501332073b444b82d89a321294ae67232c486e4168263c6e23064736f6c63430008090033",
  "linkReferences": {},
  "deployedLinkReferences": {}
}