{
  "_format": "hh-sol-artifact-1",
  "contractName": "Election",
  "sourceName": "contracts/votingSC.sol",
  "abi": [
    {
      "inputs": [],
      "stateMutability": "nonpayable",
      "type": "constructor"
    },
    {
      "inputs": [],
      "name": "admin",
      "outputs": [
        {
          "internalType": "address",
          "name": "",
          "type": "address"
        }
      ],
      "stateMutability": "view",
      "type": "function"
    },
    {
      "inputs": [
        {
          "internalType": "uint256",
          "name": "",
          "type": "uint256"
        }
      ],
      "name": "candidates",
      "outputs": [
        {
          "internalType": "string",
          "name": "name",
          "type": "string"
        },
        {
          "internalType": "uint256",
          "name": "voteCount",
          "type": "uint256"
        }
      ],
      "stateMutability": "view",
      "type": "function"
    },
    {
      "inputs": [
        {
          "internalType": "uint256",
          "name": "candidateIndex",
          "type": "uint256"
        }
      ],
      "name": "castVote",
      "outputs": [],
      "stateMutability": "nonpayable",
      "type": "function"
    },
    {
      "inputs": [
        {
          "internalType": "string[]",
          "name": "candidateNames",
          "type": "string[]"
        },
        {
          "internalType": "uint256",
          "name": "votingStartTime",
          "type": "uint256"
        },
        {
          "internalType": "uint256",
          "name": "votingEndTime",
          "type": "uint256"
        },
        {
          "internalType": "uint256",
          "name": "minVotes",
          "type": "uint256"
        }
      ],
      "name": "contestants",
      "outputs": [],
      "stateMutability": "nonpayable",
      "type": "function"
    },
    {
      "inputs": [],
      "name": "contestantsAdded",
      "outputs": [
        {
          "internalType": "bool",
          "name": "",
          "type": "bool"
        }
      ],
      "stateMutability": "view",
      "type": "function"
    },
    {
      "inputs": [],
      "name": "endVoting",
      "outputs": [],
      "stateMutability": "nonpayable",
      "type": "function"
    },
    {
      "inputs": [
        {
          "internalType": "uint256",
          "name": "candidateIndex",
          "type": "uint256"
        }
      ],
      "name": "getCandidate",
      "outputs": [
        {
          "internalType": "string",
          "name": "",
          "type": "string"
        },
        {
          "internalType": "uint256",
          "name": "",
          "type": "uint256"
        }
      ],
      "stateMutability": "view",
      "type": "function"
    },
    {
      "inputs": [],
      "name": "getCandidatesLength",
      "outputs": [
        {
          "internalType": "uint256",
          "name": "",
          "type": "uint256"
        }
      ],
      "stateMutability": "view",
      "type": "function"
    },
    {
      "inputs": [],
      "name": "getRegisteredVoters",
      "outputs": [
        {
          "internalType": "address[]",
          "name": "",
          "type": "address[]"
        }
      ],
      "stateMutability": "view",
      "type": "function"
    },
    {
      "inputs": [],
      "name": "getTotalVotes",
      "outputs": [
        {
          "internalType": "uint256",
          "name": "",
          "type": "uint256"
        }
      ],
      "stateMutability": "view",
      "type": "function"
    },
    {
      "inputs": [
        {
          "internalType": "address",
          "name": "voter",
          "type": "address"
        }
      ],
      "name": "getVotedFor",
      "outputs": [
        {
          "internalType": "uint256",
          "name": "",
          "type": "uint256"
        }
      ],
      "stateMutability": "view",
      "type": "function"
    },
    {
      "inputs": [
        {
          "internalType": "address",
          "name": "voter",
          "type": "address"
        }
      ],
      "name": "getVoterHasVoted",
      "outputs": [
        {
          "internalType": "bool",
          "name": "",
          "type": "bool"
        }
      ],
      "stateMutability": "view",
      "type": "function"
    },
    {
      "inputs": [],
      "name": "getVotingEnd",
      "outputs": [
        {
          "internalType": "uint256",
          "name": "",
          "type": "uint256"
        }
      ],
      "stateMutability": "view",
      "type": "function"
    },
    {
      "inputs": [],
      "name": "getVotingStart",
      "outputs": [
        {
          "internalType": "uint256",
          "name": "",
          "type": "uint256"
        }
      ],
      "stateMutability": "view",
      "type": "function"
    },
    {
      "inputs": [],
      "name": "getWinner",
      "outputs": [
        {
          "internalType": "string",
          "name": "",
          "type": "string"
        }
      ],
      "stateMutability": "view",
      "type": "function"
    },
    {
      "inputs": [],
      "name": "isVotingOpen",
      "outputs": [
        {
          "internalType": "bool",
          "name": "",
          "type": "bool"
        }
      ],
      "stateMutability": "view",
      "type": "function"
    },
    {
      "inputs": [],
      "name": "listingPrice",
      "outputs": [
        {
          "internalType": "uint256",
          "name": "",
          "type": "uint256"
        }
      ],
      "stateMutability": "view",
      "type": "function"
    },
    {
      "inputs": [],
      "name": "minimumVotes",
      "outputs": [
        {
          "internalType": "uint256",
          "name": "",
          "type": "uint256"
        }
      ],
      "stateMutability": "view",
      "type": "function"
    },
    {
      "inputs": [],
      "name": "newElection",
      "outputs": [],
      "stateMutability": "nonpayable",
      "type": "function"
    },
    {
      "inputs": [],
      "name": "registerVoter",
      "outputs": [],
      "stateMutability": "nonpayable",
      "type": "function"
    },
    {
      "inputs": [],
      "name": "resetMapping",
      "outputs": [],
      "stateMutability": "nonpayable",
      "type": "function"
    },
    {
      "inputs": [],
      "name": "timestamp",
      "outputs": [
        {
          "internalType": "uint256",
          "name": "",
          "type": "uint256"
        }
      ],
      "stateMutability": "view",
      "type": "function"
    },
    {
      "inputs": [],
      "name": "totalVotes",
      "outputs": [
        {
          "internalType": "uint256",
          "name": "",
          "type": "uint256"
        }
      ],
      "stateMutability": "view",
      "type": "function"
    },
    {
      "inputs": [
        {
          "internalType": "address",
          "name": "",
          "type": "address"
        }
      ],
      "name": "voters",
      "outputs": [
        {
          "internalType": "bool",
          "name": "isRegistered",
          "type": "bool"
        },
        {
          "internalType": "bool",
          "name": "hasVoted",
          "type": "bool"
        },
        {
          "internalType": "uint256",
          "name": "votedFor",
          "type": "uint256"
        }
      ],
      "stateMutability": "view",
      "type": "function"
    },
    {
      "inputs": [],
      "name": "votingEnd",
      "outputs": [
        {
          "internalType": "uint256",
          "name": "",
          "type": "uint256"
        }
      ],
      "stateMutability": "view",
      "type": "function"
    },
    {
      "inputs": [],
      "name": "votingStart",
      "outputs": [
        {
          "internalType": "uint256",
          "name": "",
          "type": "uint256"
        }
      ],
      "stateMutability": "view",
      "type": "function"
    }
  ],
  "bytecode": "0x6080604052650246139ca80060005534801561001a57600080fd5b5033600160006101000a81548173ffffffffffffffffffffffffffffffffffffffff021916908373ffffffffffffffffffffffffffffffffffffffff16021790555061219c8061006b6000396000f3fe608060405234801561001057600080fd5b506004361061018e5760003560e01c80639a0e7d66116100de578063caaea3e411610097578063ecb617d911610071578063ecb617d914610459578063f68a3b1014610463578063f851a4401461046d578063fa7f1bae1461048b5761018e565b8063caaea3e414610403578063cba025a71461041f578063da9d5c92146104295761018e565b80639a0e7d661461034f578063a3ec138d1461036d578063ae9f2ac21461039f578063b80777ea146103bd578063c3403ddf146103db578063c78f19f9146103e55761018e565b80633eb76b9c1161014b5780636407e0d4116101255780636407e0d4146102c557806368797beb146102e357806385a38635146103135780638e7ea5b2146103315761018e565b80633eb76b9c1461026d5780634b11e7a0146102895780634d3f12b5146102a75761018e565b80630d15fd7714610193578063101158af146101b15780631859df65146101cf5780632bc4a6e7146101ed5780633477ee2e1461020b57806335b8e8201461023c575b600080fd5b61019b6104a9565b6040516101a891906114e9565b60405180910390f35b6101b96104af565b6040516101c691906114e9565b60405180910390f35b6101d76104b5565b6040516101e491906114e9565b60405180910390f35b6101f56104c2565b60405161020291906115f4565b60405180910390f35b61022560048036038101906102209190611656565b610550565b60405161023392919061171c565b60405180910390f35b61025660048036038101906102519190611656565b61060c565b60405161026492919061171c565b60405180910390f35b61028760048036038101906102829190611656565b610737565b005b6102916109e4565b60405161029e91906114e9565b60405180910390f35b6102af6109ee565b6040516102bc9190611767565b60405180910390f35b6102cd610a01565b6040516102da91906114e9565b60405180910390f35b6102fd60048036038101906102f891906117ae565b610a07565b60405161030a9190611767565b60405180910390f35b61031b610a60565b60405161032891906114e9565b60405180910390f35b610339610a66565b60405161034691906117db565b60405180910390f35b610357610b9d565b60405161036491906114e9565b60405180910390f35b610387600480360381019061038291906117ae565b610ba7565b604051610396939291906117fd565b60405180910390f35b6103a7610beb565b6040516103b491906114e9565b60405180910390f35b6103c5610bf5565b6040516103d291906114e9565b60405180910390f35b6103e3610bfb565b005b6103ed610d36565b6040516103fa91906114e9565b60405180910390f35b61041d60048036038101906104189190611a4f565b610d3c565b005b610427610f97565b005b610443600480360381019061043e91906117ae565b61107c565b60405161045091906114e9565b60405180910390f35b6104616110c8565b005b61046b611267565b005b610475611340565b6040516104829190611ae1565b60405180910390f35b610493611366565b6040516104a09190611767565b60405180910390f35b60085481565b60045481565b6000600380549050905090565b6060600980548060200260200160405190810160405280929190818152602001828054801561054657602002820191906000526020600020905b8160009054906101000a900473ffffffffffffffffffffffffffffffffffffffff1673ffffffffffffffffffffffffffffffffffffffff16815260200190600101908083116104fc575b5050505050905090565b6003818154811061056057600080fd5b906000526020600020906002020160009150905080600001805461058390611b2b565b80601f01602080910402602001604051908101604052809291908181526020018280546105af90611b2b565b80156105fc5780601f106105d1576101008083540402835291602001916105fc565b820191906000526020600020905b8154815290600101906020018083116105df57829003601f168201915b5050505050908060010154905082565b606060006003805490508310610657576040517f08c379a000000000000000000000000000000000000000000000000000000000815260040161064e90611ba9565b60405180910390fd5b6003838154811061066b5761066a611bc9565b5b9060005260206000209060020201600001600384815481106106905761068f611bc9565b5b9060005260206000209060020201600101548180546106ae90611b2b565b80601f01602080910402602001604051908101604052809291908181526020018280546106da90611b2b565b80156107275780601f106106fc57610100808354040283529160200191610727565b820191906000526020600020905b81548152906001019060200180831161070a57829003601f168201915b5050505050915091509150915091565b600760009054906101000a900460ff16610786576040517f08c379a000000000000000000000000000000000000000000000000000000000815260040161077d90611c44565b60405180910390fd5b600260003373ffffffffffffffffffffffffffffffffffffffff1673ffffffffffffffffffffffffffffffffffffffff16815260200190815260200160002060000160009054906101000a900460ff16610815576040517f08c379a000000000000000000000000000000000000000000000000000000000815260040161080c90611cb0565b60405180910390fd5b600260003373ffffffffffffffffffffffffffffffffffffffff1673ffffffffffffffffffffffffffffffffffffffff16815260200190815260200160002060000160019054906101000a900460ff16156108a5576040517f08c379a000000000000000000000000000000000000000000000000000000000815260040161089c90611d1c565b60405180910390fd5b60038054905081106108ec576040517f08c379a00000000000000000000000000000000000000000000000000000000081526004016108e390611ba9565b60405180910390fd5b6001600260003373ffffffffffffffffffffffffffffffffffffffff1673ffffffffffffffffffffffffffffffffffffffff16815260200190815260200160002060000160016101000a81548160ff02191690831515021790555080600260003373ffffffffffffffffffffffffffffffffffffffff1673ffffffffffffffffffffffffffffffffffffffff16815260200190815260200160002060010181905550600381815481106109a2576109a1611bc9565b5b906000526020600020906002020160010160008154809291906109c490611d6b565b9190505550600860008154809291906109dc90611d6b565b919050555050565b6000600454905090565b600760019054906101000a900460ff1681565b60065481565b6000600260008373ffffffffffffffffffffffffffffffffffffffff1673ffffffffffffffffffffffffffffffffffffffff16815260200190815260200160002060000160019054906101000a900460ff169050919050565b60055481565b606060008060005b600380549050811015610ae7578260038281548110610a9057610a8f611bc9565b5b9060005260206000209060020201600101541115610ad45760038181548110610abc57610abb611bc9565b5b90600052602060002090600202016001015492508091505b8080610adf90611d6b565b915050610a6e565b5060038181548110610afc57610afb611bc9565b5b90600052602060002090600202016000018054610b1890611b2b565b80601f0160208091040260200160405190810160405280929190818152602001828054610b4490611b2b565b8015610b915780601f10610b6657610100808354040283529160200191610b91565b820191906000526020600020905b815481529060010190602001808311610b7457829003601f168201915b50505050509250505090565b6000600854905090565b60026020528060005260406000206000915090508060000160009054906101000a900460ff16908060000160019054906101000a900460ff16908060010154905083565b6000600554905090565b600a5481565b600160009054906101000a900473ffffffffffffffffffffffffffffffffffffffff1673ffffffffffffffffffffffffffffffffffffffff163373ffffffffffffffffffffffffffffffffffffffff1614610c8b576040517f08c379a0000000000000000000000000000000000000000000000000000000008152600401610c8290611e26565b60405180910390fd5b600554600a541015610cd2576040517f08c379a0000000000000000000000000000000000000000000000000000000008152600401610cc990611e92565b60405180910390fd5b6006546008541015610d19576040517f08c379a0000000000000000000000000000000000000000000000000000000008152600401610d1090611efe565b60405180910390fd5b6000600760006101000a81548160ff021916908315150217905550565b60005481565b600160009054906101000a900473ffffffffffffffffffffffffffffffffffffffff1673ffffffffffffffffffffffffffffffffffffffff163373ffffffffffffffffffffffffffffffffffffffff1614610dcc576040517f08c379a0000000000000000000000000000000000000000000000000000000008152600401610dc390611e26565b60405180910390fd5b600760019054906101000a900460ff1615610e1c576040517f08c379a0000000000000000000000000000000000000000000000000000000008152600401610e1390611fb6565b60405180910390fd5b6000845111610e60576040517f08c379a0000000000000000000000000000000000000000000000000000000008152600401610e5790612048565b60405180910390fd5b818310610ea2576040517f08c379a0000000000000000000000000000000000000000000000000000000008152600401610e99906120da565b60405180910390fd5b60005b8451811015610f455760036040518060400160405280878481518110610ece57610ecd611bc9565b5b60200260200101518152602001600081525090806001815401808255809150506001900390600052602060002090600202016000909190919091506000820151816000019080519060200190610f25929190611379565b506020820151816001015550508080610f3d90611d6b565b915050610ea5565b508260048190555081600581905550806006819055506001600760006101000a81548160ff0219169083151502179055506001600760016101000a81548160ff02191690831515021790555050505050565b6000600980549050111561107a5760005b600980549050811015611078576002600060098381548110610fcd57610fcc611bc9565b5b9060005260206000200160009054906101000a900473ffffffffffffffffffffffffffffffffffffffff1673ffffffffffffffffffffffffffffffffffffffff1673ffffffffffffffffffffffffffffffffffffffff168152602001908152602001600020600080820160006101000a81549060ff02191690556000820160016101000a81549060ff021916905560018201600090555050808061107090611d6b565b915050610fa8565b505b565b6000600260008373ffffffffffffffffffffffffffffffffffffffff1673ffffffffffffffffffffffffffffffffffffffff168152602001908152602001600020600101549050919050565b600760009054906101000a900460ff16611117576040517f08c379a000000000000000000000000000000000000000000000000000000000815260040161110e90611c44565b60405180910390fd5b600260003373ffffffffffffffffffffffffffffffffffffffff1673ffffffffffffffffffffffffffffffffffffffff16815260200190815260200160002060000160009054906101000a900460ff16156111a7576040517f08c379a000000000000000000000000000000000000000000000000000000000815260040161119e90612146565b60405180910390fd5b6001600260003373ffffffffffffffffffffffffffffffffffffffff1673ffffffffffffffffffffffffffffffffffffffff16815260200190815260200160002060000160006101000a81548160ff0219169083151502179055506009339080600181540180825580915050600190039060005260206000200160009091909190916101000a81548173ffffffffffffffffffffffffffffffffffffffff021916908373ffffffffffffffffffffffffffffffffffffffff160217905550565b600160009054906101000a900473ffffffffffffffffffffffffffffffffffffffff1673ffffffffffffffffffffffffffffffffffffffff163373ffffffffffffffffffffffffffffffffffffffff16146112f7576040517f08c379a00000000000000000000000000000000000000000000000000000000081526004016112ee90611e26565b60405180910390fd5b6003600061130591906113ff565b6000600881905550611315610f97565b600960006113239190611423565b6000600760016101000a81548160ff021916908315150217905550565b600160009054906101000a900473ffffffffffffffffffffffffffffffffffffffff1681565b600760009054906101000a900460ff1681565b82805461138590611b2b565b90600052602060002090601f0160209004810192826113a757600085556113ee565b82601f106113c057805160ff19168380011785556113ee565b828001600101855582156113ee579182015b828111156113ed5782518255916020019190600101906113d2565b5b5090506113fb9190611444565b5090565b50805460008255600202906000526020600020908101906114209190611461565b50565b50805460008255906000526020600020908101906114419190611444565b50565b5b8082111561145d576000816000905550600101611445565b5090565b5b8082111561148c576000808201600061147b9190611490565b600182016000905550600201611462565b5090565b50805461149c90611b2b565b6000825580601f106114ae57506114cd565b601f0160209004906000526020600020908101906114cc9190611444565b5b50565b6000819050919050565b6114e3816114d0565b82525050565b60006020820190506114fe60008301846114da565b92915050565b600081519050919050565b600082825260208201905092915050565b6000819050602082019050919050565b600073ffffffffffffffffffffffffffffffffffffffff82169050919050565b600061155b82611530565b9050919050565b61156b81611550565b82525050565b600061157d8383611562565b60208301905092915050565b6000602082019050919050565b60006115a182611504565b6115ab818561150f565b93506115b683611520565b8060005b838110156115e75781516115ce8882611571565b97506115d983611589565b9250506001810190506115ba565b5085935050505092915050565b6000602082019050818103600083015261160e8184611596565b905092915050565b6000604051905090565b600080fd5b600080fd5b611633816114d0565b811461163e57600080fd5b50565b6000813590506116508161162a565b92915050565b60006020828403121561166c5761166b611620565b5b600061167a84828501611641565b91505092915050565b600081519050919050565b600082825260208201905092915050565b60005b838110156116bd5780820151818401526020810190506116a2565b838111156116cc576000848401525b50505050565b6000601f19601f8301169050919050565b60006116ee82611683565b6116f8818561168e565b935061170881856020860161169f565b611711816116d2565b840191505092915050565b6000604082019050818103600083015261173681856116e3565b905061174560208301846114da565b9392505050565b60008115159050919050565b6117618161174c565b82525050565b600060208201905061177c6000830184611758565b92915050565b61178b81611550565b811461179657600080fd5b50565b6000813590506117a881611782565b92915050565b6000602082840312156117c4576117c3611620565b5b60006117d284828501611799565b91505092915050565b600060208201905081810360008301526117f581846116e3565b905092915050565b60006060820190506118126000830186611758565b61181f6020830185611758565b61182c60408301846114da565b949350505050565b600080fd5b7f4e487b7100000000000000000000000000000000000000000000000000000000600052604160045260246000fd5b611871826116d2565b810181811067ffffffffffffffff821117156118905761188f611839565b5b80604052505050565b60006118a3611616565b90506118af8282611868565b919050565b600067ffffffffffffffff8211156118cf576118ce611839565b5b602082029050602081019050919050565b600080fd5b600080fd5b600067ffffffffffffffff82111561190557611904611839565b5b61190e826116d2565b9050602081019050919050565b82818337600083830152505050565b600061193d611938846118ea565b611899565b905082815260208101848484011115611959576119586118e5565b5b61196484828561191b565b509392505050565b600082601f83011261198157611980611834565b5b813561199184826020860161192a565b91505092915050565b60006119ad6119a8846118b4565b611899565b905080838252602082019050602084028301858111156119d0576119cf6118e0565b5b835b81811015611a1757803567ffffffffffffffff8111156119f5576119f4611834565b5b808601611a02898261196c565b855260208501945050506020810190506119d2565b5050509392505050565b600082601f830112611a3657611a35611834565b5b8135611a4684826020860161199a565b91505092915050565b60008060008060808587031215611a6957611a68611620565b5b600085013567ffffffffffffffff811115611a8757611a86611625565b5b611a9387828801611a21565b9450506020611aa487828801611641565b9350506040611ab587828801611641565b9250506060611ac687828801611641565b91505092959194509250565b611adb81611550565b82525050565b6000602082019050611af66000830184611ad2565b92915050565b7f4e487b7100000000000000000000000000000000000000000000000000000000600052602260045260246000fd5b60006002820490506001821680611b4357607f821691505b60208210811415611b5757611b56611afc565b5b50919050565b7f496e76616c69642063616e64696461746520696e646578000000000000000000600082015250565b6000611b9360178361168e565b9150611b9e82611b5d565b602082019050919050565b60006020820190508181036000830152611bc281611b86565b9050919050565b7f4e487b7100000000000000000000000000000000000000000000000000000000600052603260045260246000fd5b7f566f74696e6720697320636c6f73656400000000000000000000000000000000600082015250565b6000611c2e60108361168e565b9150611c3982611bf8565b602082019050919050565b60006020820190508181036000830152611c5d81611c21565b9050919050565b7f566f746572206973206e6f742072656769737465726564000000000000000000600082015250565b6000611c9a60178361168e565b9150611ca582611c64565b602082019050919050565b60006020820190508181036000830152611cc981611c8d565b9050919050565b7f566f7465722068617320616c726561647920766f746564000000000000000000600082015250565b6000611d0660178361168e565b9150611d1182611cd0565b602082019050919050565b60006020820190508181036000830152611d3581611cf9565b9050919050565b7f4e487b7100000000000000000000000000000000000000000000000000000000600052601160045260246000fd5b6000611d76826114d0565b91507fffffffffffffffffffffffffffffffffffffffffffffffffffffffffffffffff821415611da957611da8611d3c565b5b600182019050919050565b7f536f727279204f6e6c792041646d696e6973747261746f722063616e2070657260008201527f666f726d2074686973206f7065726174696f6e00000000000000000000000000602082015250565b6000611e1060338361168e565b9150611e1b82611db4565b604082019050919050565b60006020820190508181036000830152611e3f81611e03565b9050919050565b7f566f74696e6720686173206e6f7420656e646564207965740000000000000000600082015250565b6000611e7c60188361168e565b9150611e8782611e46565b602082019050919050565b60006020820190508181036000830152611eab81611e6f565b9050919050565b7f4e6f7420656e6f75676820766f74657300000000000000000000000000000000600082015250565b6000611ee860108361168e565b9150611ef382611eb2565b602082019050919050565b60006020820190508181036000830152611f1781611edb565b9050919050565b7f636f6e74657374616e74732068617320616c7265616479206265656e2061646460008201527f656420616e642061646d696e206861736e2774206465636c61726564206e657760208201527f20656c656374696f6e0000000000000000000000000000000000000000000000604082015250565b6000611fa060498361168e565b9150611fab82611f1e565b606082019050919050565b60006020820190508181036000830152611fcf81611f93565b9050919050565b7f5468657265206d757374206265206174206c65617374206f6e652063616e646960008201527f6461746500000000000000000000000000000000000000000000000000000000602082015250565b600061203260248361168e565b915061203d82611fd6565b604082019050919050565b6000602082019050818103600083015261206181612025565b9050919050565b7f566f74696e6720656e642074696d65206d75737420626520616674657220766f60008201527f74696e672073746172742074696d650000000000000000000000000000000000602082015250565b60006120c4602f8361168e565b91506120cf82612068565b604082019050919050565b600060208201905081810360008301526120f3816120b7565b9050919050565b7f566f7465722068617320616c7265616479207265676973746572656400000000600082015250565b6000612130601c8361168e565b915061213b826120fa565b602082019050919050565b6000602082019050818103600083015261215f81612123565b905091905056fea2646970667358221220e3673677502c282b8206241279dfae51f38cb7c6a34cc987aa6f6bf45387012e64736f6c63430008090033",
  "linkReferences": {},
  "deployedLinkReferences": {}
}